:060000000A128A1110280B
:10000800FE00030EF1000A08F200831203137F08B2
:10001800F3000A128A11AA2F0A128A111328F6016C
:10002800F701F801F90183120313EF018313A030DC
:100038008400C0300A128A1500200A128A1183012E
:100048000A128A15632883120313650880398316F8
:100058000313C000400883120313EA0065088316DF
:100068000313C0004007C100410883120313EC00CA
:10007800E41F3F28402841286C146C0803194528C0
:10008800462856286C0A031D4A284B285328003056
:10009800E5000030E4000030E3000030E200E4173F
:1000A800E5015E280030E5000030E4000030E300A0
:1000B8000030E2006908803983160313C000400845
:1000C80083120313EB006B086A0603196C286D286A
:1000D8006E286A17690883160313C0004007C10019
:1000E800410883120313EB00E81F7B287C287D2836
:1000F8006B146B0803198128822892286B0A031D48
:10010800862887288F280030E9000030E800003072
:10011800E7000030E600E817E9019A280030E90016
:100128000030E8000030E7000030E6006C086B02A1
:1001380003189F28A02824296A1FA328A428AC28CC
:10014800803083160313C000400883120313EA06A5
:100158006C0883160313C000400883120313ED00D4
:100168006B0883160313C000400883120313EC00C6
:100178006D0883160313C000400883120313EB00B5
:10018800620883160313C000400883120313ED00AE
:10019800660883160313C000400883120313E200A5
:1001A8006D0883160313C000400883120313E6008A
:1001B800630883160313C000400883120313ED007D
:1001C800670883160313C000400883120313E30073
:1001D8006D0883160313C000400883120313E70059
:1001E800640883160313C000400883120313ED004C
:1001F800680883160313C000400883120313E40041
:100208006D0883160313C000400883120313E80027
:10021800650883160313C000400883120313ED001A
:10022800690883160313C000400883120313E5000E
:100238006D0883160313C000400883120313E900F6
:10024800ED016B0883160313C000C1014108C30008
:10025800831203136C08831603134002C200031CA5
:10026800C3034308803AFF0080307F02031D3E2904
:100278001A304202031C412942299329831203138D
:100288006508640463046204031D4B294D29013089
:100298004E29003083160313C0004008831203134D
:1002A800ED000030E5000030E4000030E3000030ED
:1002B800E2006B0883160313C0004008831203137F
:1002C800EC009B296D1C69296A2977296D0883161A
:1002D8000313C0000310400C0138C1004108831209
:1002E8000313ED0079290310ED0C621C7C297D298C
:1002F8007E29ED17013083160313C0008312031300
:10030800650DE50CE40CE30CE20C83160313C00B3B
:1003180082290130C000400883120313EC078312BE
:1003280003136B086C02031C9A299B2966296A1B14
:100338009E299F29F6296C08031DA329A429AD2904
:100348000030E5000030E4000030E3000030E20057
:100358008C2B6608E207670803110318013E03198E
:10036800B629E307680803110318013E0319BD29DC
:10037800E407690803110318013E0319C429E507B6
:10038800651CC729C829EA2A6D1CCB29CC29D9297B
:100398006D0883160313C0000310400C0138C10018
:1003A800410883120313ED00DB290310ED0C621CD6
:1003B800DE29DF29E029ED17013083160313C00079
:1003C80083120313650DE50CE40CE30CE20C8316B1
:1003D8000313C00BE4290130C00040088312031343
:1003E800EC07EA2A6508803AFF006908803A7F022C
:1003F800031D082A68086402031D082A67086302A7
:10040800031D082A6608620203180B2A0C2A9C2A74
:10041800FF3083160313C000FF30C100FF30C20055
:10042800FF30C30083120313660883160313C40046
:1004380083120313670883160313C500831203137B
:10044800680883160313C60083120313690883160A
:100458000313C70083120313620883160313C4022D
:10046800831203136308031C630F3B2A3E2A831677
:100478000313C502831203136408031C640F452A7F
:10048800482A83160313C602831203136508031C44
:10049800650F4F2A522A83160313C70283120313C8
:1004A800831603134408C00745080318450F5D2A3F
:1004B8005E2AC10746080318460F632A642AC20742
:1004C80047080318470AC307430883120313E500C4
:1004D80083160313420883120313E40083160313DD
:1004E800410883120313E3008316031340088312A1
:1004F8000313E200803083160313C0004008831200
:100508000313EA06ED09ED0A6D08031D8C2A8D2AEE
:10051800AA2A0130E207003003180130E30700304F
:1005280003180130E407003003180130E507AA2A50
:100538006608E2026708031C670FE3026808031CE9
:10054800680FE4026908031C690FE5026508640482
:1005580063046204031DB12AB22AE62A6D08031D4A
:10056800B62AB72AE62A0030E5000030E400003059
:10057800E3000030E2008C2B013083160313C00027
:10058800031083120313E20DE30DE40DE50D83164A
:100598000313C00BC42A83120313ED1FD42AD52AD0
:1005A800D62A62146D1CD92ADA2ADD2A0314ED0D25
:1005B800DF2A0310ED0D6C080319E32AE42AE62A62
:1005C8000130EC02E41FE92AEA2AC02AEB01ED1FF8
:1005D800EE2AEF2AFD2A6D087F390319F42AF52A35
:1005E800F82AEB01EB0AFD2A621CFB2AFC2AFD2AE9
:1005F800F52A6B080319012B022B562B0130E20751
:10060800003003180130E307003003180130E40715
:10061800003003180130E507651C132B142B562BEB
:10062800620883160313C00083120313630883163A
:100638000313C10083120313640883160313C20053
:1006480083120313650883160313C3000130C40023
:10065800430DC30CC20CC10CC00CC40B2C2B43089B
:1006680083120313E500831603134208831203134E
:10067800E40083160313410883120313E30083166F
:100688000313400883120313E2006C0A03194D2B6D
:100698004E2B562B013083160313C00040088312DB
:1006A8000313EC076C0A03195A2B5B2B602B6C089D
:1006B800031D5F2B602B6E2B0030E5000030E4003B
:1006C8000030E3000030E2006C08031D6C2B6D2B3A
:1006D8006E2BEA016C1C712B722B742BE4177C2B8C
:1006E8007F3083160313C000400883120313E40508
:1006F8006C0883160313C0000310400CC1004108A6
:1007080083120313E500EA1F8A2B8B2B8C2BE5172A
:1007180008008312031331088039B6003608BB007D
:100728003108B6003607B7003708C100B01F9D2B47
:100738009E2B9F2B411441080319A32BA42BB32BE9
:10074800410A031DA82BA92BB12B0030B1000030A2
:10075800B0000030AF000030AE00B017BB2B003047
:10076800B1000030B0000030AF000030AE003508F6
:100778008039B6003608BB063508B6003607B7001C
:100788003708BC00B41FC92BCA2BCB2B3C143C0820
:100798000319CF2BD02BDF2B3C0A031DD42BD52BD1
:1007A800DD2B0030B5000030B4000030B30000305D
:1007B800B200B417E72B0030B5000030B4000030A9
:1007C800B3000030B2003C080319EB2BEC2BF12BE3
:1007D8004108031DF02BF12BFA2B0030B10000303B
:1007E800B0000030AF000030AE00ED2E2E08B6008D
:1007F8003608F40034080A168A11D7270A128A1113
:10080800750883120313C7007408C6004608B600AB
:10081800B701B801B9013908C0003808BF00370866
:10082800BE003608BD004708B600B701B801B901D7
:100838003908C5003808C4003708C3003608C200A4
:100848002F08B6003608F40033080A168A11D7278D
:100858000A128A11750883120313C7007408C600A8
:100868004608B600B701B801B9013608BD07370810
:1008780003110318013E0319422CBE07380803115F
:100888000318013E0319492CBF073908031103183F
:10089800013E0319502CC0074708B600B701B8013C
:1008A800B9013608C207370803110318013E0319B6
:1008B8005E2CC307380803110318013E0319652C81
:1008C800C407390803110318013E03196C2CC50726
:1008D8003008B6003608F40032080A168A11D727FD
:1008E8000A128A11750883120313C7007408C60018
:1008F8004608B600B701B801B9013608BD07370880
:1009080003110318013E03198A2CBE073808031186
:100918000318013E0319912CBF0739080311031866
:10092800013E0319982CC0074708B600B701B80163
:10093800B9013608C207370803110318013E031925
:10094800A62CC307380803110318013E0319AD2C60
:10095800C407390803110318013E0319B42CC5074D
:100968000830B6000310BD0DBE0DBF0DC00DB60B8F
:10097800B62C2F08B6003608F40032080A168A1179
:10098800D7270A128A11750883120313C70074083F
:10099800C6004608B6004708B700B801B9013608CE
:1009A800BD07370803110318013E0319DC2CBE07E5
:1009B800380803110318013E0319E32CBF0739084F
:1009C80003110318013E0319EA2CC0072E08B600CC
:1009D8003608F40033080A168A11D7270A128A1132
:1009E800750883120313C7007408C6004608B600CA
:1009F8004708B700B801B9013608BD073708031121
:100A08000318013E0319092DBE07380803110318FE
:100A1800013E0319102DBF07390803110318013EC1
:100A28000319172DC0070830B6000310BD0DBE0D01
:100A3800BF0DC00DB60B192D2E08B6003608F400F0
:100A480032080A168A11D7270A128A1175088312E2
:100A58000313C7007408C6004608B6004708B70065
:100A6800B801B9013608BD07370803110318013E5C
:100A780003193F2DBE07380803110318013E031957
:100A8800462DBF07390803110318013E03194D2DE0
:100A9800C0072F08B6003608F40034080A168A1171
:100AA800D7270A128A11750883120313C70074081E
:100AB800C6004608B6004708B700B801B9013608AD
:100AC800C207370803110318013E03196C2DC30729
:100AD800380803110318013E0319732DC407390898
:100AE80003110318013E03197A2DC5073008B60013
:100AF8003608F40033080A168A11D7270A128A1111
:100B0800750883120313C7007408C6004608B600A8
:100B18004708B700B801B9013608C20737080311FA
:100B28000318013E0319992DC30738080311031848
:100B3800013E0319A02DC407390803110318013E0B
:100B48000319A72DC5073008B6003608F400340885
:100B58000A168A11D7270A128A11750883120313F5
:100B6800C7007408C6004608B6004708B700B801B1
:100B7800B90108300310B60DB70DB80DB90DFF3E19
:100B8800031DBE2D3608C207370803110318013E9E
:100B98000319CF2DC307380803110318013E0319A1
:100BA800D62DC407390803110318013E0319DD2D9A
:100BB800C5073D08B6003E08B7003F08B800400822
:100BC800B90018300310B90CB80CB70CB60CFF3EBE
:100BD800031DE62D3608C207370803110318013E26
:100BE8000319F72DC307380803110318013E031929
:100BF800FE2DC407390803110318013E0319052EF9
:100C0800C5070830B6000310BD0DBE0DBF0DC00DE1
:100C1800B60B072E41083C07B600B701B70D3608DA
:100C2800823EC60037080318013EFF3EC700392E32
:100C38000130B6000310C20DC30DC40DC50DB60BAF
:100C48001E2EC01F282E292E2A2E42140130B6002F
:100C58000310BD0DBE0DBF0DC00DB60B2C2EFF3001
:100C6800C6070318C70AFF30C707C41F3C2E3D2E0E
:100C78001C2EBC01C01F412E422E5E2EFF303D05AA
:100C8800B600FF303E05B700FF303F05B8007F30A3
:100C98004005B90039083804370436040319552EBD
:100CA800562E592EBC01BC0A5E2E421C5C2E5D2EAF
:100CB8005E2E562E3C080319622E632E942E0130A8
:100CC800C207003003180130C30700300318013091
:100CD800C407003003180130C507451C742E752E53
:100CE800942E4208B6004308B7004408B8004508E7
:100CF800B9000130BA00390DB90CB80CB70CB60CF4
:100D0800BA0B7F2E3908C5003808C4003708C3005D
:100D18003608C2000130C6070318C70A0030C707E3
:100D28004708803AFF0080307F02031D9D2EFF3068
:100D38004602031CA02EA12EAC2E7F308312031373
:100D4800C5008030C4000030C3000030C200E12E6E
:100D5800831203134708803AFF0080307F02031D87
:100D6800B72E013046020318BA2EBB2EC72E00300C
:100D780083120313C5000030C4000030C3000030E4
:100D8800C200BB01E12E831203134608B6003608E1
:100D9800C100FF30C205FF30C3057F30C4050030F5
:100DA800C505411CD82ED92EDA2EC4174108B60025
:100DB8000310360CB7003708C5003B08B6003608E4
:100DC800C5044508B1004408B0004308AF00420814
:100DD800AE00080083120313A80028080319F52E93
:100DE800F62E0A2FA31FF92EFA2E0A2F2009AA0081
:100DF8002109AB002209AC002309AD00AA0A031996
:100E0800AB0A0319AC0A0319AD0A122F2308AD0067
:100E18002208AC002108AB002008AA0023082204FD
:100E280021042004031D192F1A2F232F0030A3009B
:100E38000030A2000030A1000030A000A92F963099
:100E4800A4002408A900352F0130A4002408A9070C
:100E580001300310AD0CAC0CAB0CAA0CFF3E031D0B
:100E68002D2FFE302D05031D3A2F3B2F282F572FEE
:100E78000130A4002408A9070130AA07003003188C
:100E88000130AB07003003180130AC0700300318FD
:100E98000130AD0701300310AD0CAC0CAB0CAA0C43
:100EA800FF3E031D4F2FFF302D05031D5C2F5D2FC7
:100EB8003C2F692F0130A9020130A4000310AA0DAC
:100EC800AB0DAC0DAD0DA40B622FAC1B6C2F6D2FB1
:100ED800732F023029020318722F732F5E2F2918DF
:100EE800762F772F7F2FFF30AA05FF30AB057F3095
:100EF800AC05FF30AD050310A90C2908A400A50115
:100F0800A601A70118300310A40DA50DA60DA70D65
:100F1800FF3E031D872F2408AA042508AB042608D2
:100F2800AC042708AD04280803199B2F9C2FA12F78
:100F3800A31F9F2FA02FA12FAD172D08A3002C08AA
:100F4800A2002B08A1002A08A00008000B1DAD2F45
:100F5800AE2FB92FFC3081000B110130831603131B
:100F6800B6070318B70A0030B70783160313370804
:100F7800803AF0003908803A7002031DC52F3808FE
:100F88003602031CC82FC92FCC2F83120313071650
:100F9800831603133708803AFF0080307F02031D51
:100FA800D72FC8303602031CDA2FDB2FE22F83122B
:100FB8000313071283160313B601B70173088312CC
:100FC8000313FF0072088A00710E8300FE0E7E0E66
:100FD80009008312031387142130F5007630F400DA
:100FE800F40BF42FF50BF42F000083120313871072
:020FF8000800EF
:1010000064008001840A04060319003404060128E0
:1010100083120313AD01AB1F0E280F281628AA094F
:10102000AB09AA0A0319AB0AAD01AD0AA91F192819
:101030001A281F28A809A909A80A0319A90A280813
:1010400029040319242825285428AC01AC0A332884
:1010500001300310A80DA90DFF3E031D2928013002
:10106000F5007508AC07A91F362837282828290855
:101070002B02031D3D2828082A02031C4028412872
:1010800047282808AA022908031CAB03AB02013039
:101090000310A90CA80CFF3E031D48280130AC0228
:1010A000031D5328542837282D0803195828592878
:1010B0005E28AA09AB09AA0A0319AB0A2B08A900E2
:1010C0002A08A80008000A168A118B270A128A1516
:1010D0008316031388010710871086100615203029
:1010E0008312031390000A168A1198270A128A1590
:1010F00080300A168A1173270A128A1513300A16CD
:101100008A11B4270A128A15C0300A168A11732769
:101110000A128A1525300A168A11B4270A128A156E
:101120000D3083160313DC00AF30DB00B530DA007E
:10113000DA0B9828DB0B9828DC0B98289F280130C5
:101140000A168A1173270A128A1580300A168A1124
:1011500073270A128A1535300A168A11B4270A1223
:101160008A151A3083160313DC005E30DB006D3005
:10117000DA00DA0BB928DB0BB928DC0BB928C02858
:101180000A128A15AE210A128A15C0280A128A117B
:10119000102883120313A501A11FCF28D028D72818
:1011A000A009A109A00A0319A10AA501A50AA31F64
:1011B000DA28DB28E428A209A309A20A0319A30A52
:1011C0000130F4007408A506A601A7012008210437
:1011D0000319EB28EC282329A401A40AFA280130DA
:1011E0000310A00DA10DFF3E031DF0280130F400F7
:1011F0007408A407A11FFD28FE28EF280130031062
:10120000A60DA70DFF3E031DFF2821082302031D85
:101210000B2920082202031C0E290F291629200859
:10122000A2022108031CA303A30226140130031009
:10123000A10CA00CFF3E031D17290130A402031DC1
:1012400022292329FE2825080319272928292D29A1
:10125000A609A709A60A0319A70A2708A1002608B4
:10126000A00008000310831603134A0D4B0DCC0099
:101270004C08D2005208031D3E293F29482900305E
:10128000CB000030CA000030C9000030C800AD29D2
:101290004808CC004908CD004A08CE004B08CF00D2
:1012A0001F300310CF0CCE0CCD0CCC0CFF3E031D19
:1012B00051294C08D0005008D100CA17FF30C8058A
:1012C000FF30C905FF30CA050030CB059630D20289
:1012D000D21F6B296C2986295208803A973E031841
:1012E0007229732974293F2901300310CB0CCA0CD1
:1012F000C90CC80CFF3E031D75290130CC004C08F9
:10130000D207031D8429852974299D292030520282
:10131000031C8B298C2998293F290130CC0003100C
:10132000C80DC90DCA0DCB0DCC0B8F290130D202CF
:101330005208031D9C299D298D2951080319A129B3
:10134000A229AD29C809C909CA09CB09C80A0319C4
:10135000C90A0319CA0A0319CB0A0800762A0A1215
:101360008A1531250A128A15831603133D03031DBE
:10137000BA29BB29BC294D2B2A0883120313A000CC
:10138000831603132B0883120313A1000030A11B43
:10139000FF30A200A30001300A128A11EE260A12C1
:1013A0008A15831203132308B5002208B40021080C
:1013B000B3002008B2003D30B1001F30B000BE3095
:1013C000AF007730AE000A128A118D230A128A15F7
:1013D00083120313310883160313CB008312031304
:1013E000300883160313CA00831203132F088316D1
:1013F0000313C900831203132E0883160313C800B6
:101400000A128A1532210A128A1583160313490813
:10141000B5004808B400AA3083120313EE00831607
:1014200003133408831203136E0283160313B800E8
:1014300035090318013EB9002A0883120313A000DE
:10144000831603132B0883120313A1000030A11B82
:10145000FF30A200A30001300A128A11EE260A1200
:101460008A15831203132308B5002208B40021084B
:10147000B3002008B2003E30B1003430B0002D304F
:10148000AF000630AE000A128A118D230A128A15A7
:1014900083120313310883160313CB008312031343
:1014A000300883160313CA00831203132F08831610
:1014B0000313C900831203132E0883160313C800F5
:1014C0000A128A1532210A128A1583160313490853
:1014D000AD004808AC006C2A831603132A08323E7C
:1014E000AA002B080318013E003EAB00831603132D
:1014F0002B08803AFF0084307F02031D812A0030D0
:101500002A02031C842A852AAF294D2B0A128A1528
:1015100031250A128A15831603133D03031D912AF0
:10152000922A932A532B2A0883120313A0008316AE
:1015300003132B0883120313A1000030A11BFF30FB
:10154000A200A30001300A128A11EE260A128A159F
:10155000831203132308B5002208B4002108B30046
:101560002008B2003D30B1001F30B000BE30AF00E7
:101570007730AE000A128A118D230A128A1583125F
:101580000313310883160313CB00831203133008AF
:1015900083160313CA00831203132F088316031341
:1015A000C900831203132E0883160313C8000A12FE
:1015B0008A1532210A128A15831603134908B500C9
:1015C0004808B400AA3083120313EE0083160313F5
:1015D0003408831203136E0283160313B80035090F
:1015E0000318013EB9002A0883120313A0008316D2
:1015F00003132B0883120313A1000030A11BFF303B
:10160000A200A30001300A128A11EE260A128A15DE
:10161000831203132308B5002208B4002108B30085
:101620002008B2003E30B1003430B0002D30AF00A1
:101630000630AE000A128A118D230A128A1583120F
:101640000313310883160313CB00831203133008EE
:1016500083160313CA00831203132F088316031380
:10166000C900831203132E0883160313C8000A123D
:101670008A1532210A128A15831603134908AD0010
:101680004808AC00432B831603132A08CE3EAA0059
:101690002B080318013EFF3EAB0083160313AB1F5C
:1016A000522B532B862A0800831203134F088039CC
:1016B000D0005008D9004F08D0005007D100510881
:1016C000E000CE1F642B652B662B601460080319A5
:1016D0006A2B6B2B7B2B600A031D6F2B702B782BD7
:1016E0000030CF000030CE000030CD000030CC0004
:1016F000CE17CF01832B0030CF000030CE0000305A
:10170000CD000030CC004B088039D0005008D906FD
:101710004B08D0005007D1005108E100CA1F912B9F
:10172000922B932B611461080319972B982BA82BEC
:10173000610A031D9C2B9D2BA52B0030CB00003094
:10174000CA000030C9000030C800CA17CB01B02B56
:101750000030CB000030CA000030C9000030C800A3
:101760004B084A0449044804031DB72BB82BD12B5E
:101770000030CF000030CE000030CD000030CC0073
:101780008030CE047F30CF045908D0005008CF04F9
:101790004F08CB004E08CA004D08C9004C08C800CD
:1017A000302D6008031DD52BD62BDF2B0030CB004E
:1017B0000030CA000030C9000030C800302D600879
:1017C000D000D1015108D30061085002D200031C9F
:1017D000D30352087F3EDA0053080318013E003E4F
:1017E000DB004F08D8004E08D7004D08D6004C0843
:1017F000D5000030CF000030CE000030CD000030EA
:10180000CC000030DF000030DE000030DD000030B2
:10181000DC00E101552C610803190F2C102C302C31
:101820000130D0000310D50DD60DD70DD80DD00B3B
:10183000122C0130D0000310CC0DCD0DCE0DCF0DEC
:10184000D00B1B2CDF1F252C262C272C4C140130F1
:10185000D0000310DC0DDD0DDE0DDF0DD00B292CCB
:101860004B085802031D3E2C4A085702031D3E2C0C
:1018700049085602031D3E2C48085502031C412C02
:10188000422C512C5F174808D5024908031C490F08
:10189000D6024A08031C4A0FD7024B08031C4B0F01
:1018A000D8020130D0005008E1071A306102031C51
:1018B0005A2C5B2C0B2C580857045604550403195A
:1018C000622C632C822C5C14822C0130D00003101B
:1018D000CC0DCD0DCE0DCF0DD00B672CDF1F712C95
:1018E000722C732C4C140130D0000310DC0DDD0D74
:1018F000DE0DDF0DD00B752CFF30DA070318DB0A85
:10190000FF30DB07CE1F852C862C652CE101DF1F05
:101910008A2C8B2CA72CFF305C05D000FF305D0596
:10192000D100FF305E05D2007F305F05D300530841
:1019300052045104500403199E2C9F2CA22CE10147
:10194000E10AA72C4C1CA52CA62CA72C9F2C6108C7
:101950000319AB2CAC2CDD2C0130CC070030031864
:101960000130CD07003003180130CE0700300318D6
:101970000130CF074F1CBD2CBE2CDD2C4C08D000F5
:101980004D08D1004E08D2004F08D3000130D400DA
:10199000530DD30CD20CD10CD00CD40BC82C530843
:1019A000CF005208CE005108CD005008CC000130C5
:1019B000DA070318DB0A0030DB075B08803AFF0018
:1019C00080307F02031DE62CFF305A02031CE92CF5
:1019D000EA2CF82CFF3083120313DA000030DB000E
:1019E0000030CF000030CE000030CD000030CC0001
:1019F000831203135B08803AFF0080307F02031DCF
:101A0000032D01305A020318062D072D142D8312C1
:101A10000313DA01DB010030CF000030CE000030CC
:101A2000CD000030CC00D901831203135A08D00036
:101A30005008E000601C1D2D1E2D202DCE17242DDA
:101A40007F30D0005008CE056008D0000310500C45
:101A5000D1005108CF005908D0005008CF04C82B3E
:101A60000800831203138F018E0186140F30831632
:101A70000313D300D30B3A2D3D2D8312031386108D
:101A8000061D432D442D402D10140619482D492DB7
:101A9000452D10100F0883160313BF008312031384
:101AA0000E0883160313BE003E0883120313A00022
:101AB000831603133F0883120313A1000030A11BF8
:101AC000FF30A200A30001300A128A11EE260A128A
:101AD0008A15831203132308B5002208B4002108D5
:101AE000B3002008B2003C30B100DE30B000D2308C
:101AF000AF008930AE000A128A118D230A128A15AE
:101B0000831203133108CF003008CE002F08CD0018
:101B10002E08CC004030CB000030CA000030C90095
:101B20000030C8000A128A1554230A128A1583123B
:101B300003134B08E9004A08E8004908E700480891
:101B4000E6004030E5000030E4000030E300003003
:101B5000E2000A128A1127200A128A15831203133F
:101B6000650883160313CB008312031364088316DE
:101B70000313CA0083120313630883160313C900F7
:101B800083120313620883160313C8000A128A150E
:101B900032210A128A15831603134908A100480846
:101BA000A0003E0883120313A000831603133F080E
:101BB00083120313A1000030A11BFF30A200A30079
:101BC00001300A128A11EE260A128A1583120313B3
:101BD0002308B5002208B4002108B3002008B20091
:101BE0003F30B1004C30B000CC30AF00CD30AE0053
:101BF0000A128A118D230A128A15831203133108DF
:101C000083160313CB0083120313300883160313C8
:101C1000CA00831203132F0883160313C90083120B
:101C200003132E0883160313C8000A128A153221E3
:101C30000A128A15831603134908BF004808BE001C
:101C40002108803AFF0080307F02031D292E0330D7
:101C50002002031C2C2E2D2EDC2F831603132108AB
:101C6000803AFF0080307F02031D382E3230200280
:101C700003183B2E3C2EDC2F83160313BD01BD0A37
:101C80000A3083120313A8000030A9006430A000BA
:101C90000030A10083160313210883120313A3004D
:101CA00083160313200883120313A2000A128A1555
:101CB000C9200A128A15831203132108AB002008D9
:101CC000AA000A128A1508200A128A158312031321
:101CD000280883160313D3005308BC000A3083126C
:101CE0000313A8000030A9000A30A0000030A100B2
:101CF00083160313210883120313A300831603130F
:101D0000200883120313A2000A128A15C9200A129E
:101D10008A15831203132108AB002008AA000A12B7
:101D20008A1508200A128A158312031328088316BD
:101D30000313D3005308BB000A3083120313A80017
:101D40000030A90083160313210883120313AB008C
:101D500083160313200883120313AA000A128A159C
:101D600008200A128A158312031328088316031306
:101D7000D3005308BA0001300A168A1173270A12D9
:101D80008A1580300A168A1173270A128A150130C3
:101D90000A168A11B4270A128A1503308316031310
:101DA000D5008A30D4005530D300D30BD52ED40BB8
:101DB000D52ED50BD52E01300A168A1173270A129B
:101DC0008A15643083120313A0000030A10083162B
:101DD00003132D0883120313A300831603132C0887
:101DE00083120313A2000A128A15C9200A128A1547
:101DF00083120313210883160313A900831203130C
:101E0000200883160313A800643083120313A8006C
:101E10000030A900831603132D0883120313AB00AF
:101E2000831603132C0883120313AA000A128A15BF
:101E300008200A128A158312031329088316031334
:101E4000D90083120313280883160313D8000A301D
:101E500083120313A0000030A10083160313590856
:101E600083120313A300831603135808831203136A
:101E7000A2000A128A15C9200A128A1583120313B6
:101E8000210883160313A700831203132008831667
:101E90000313A6000A3083120313A8000030A90020
:101EA00083160313590883120313AB00831603131D
:101EB000580883120313AA000A128A1508200A126E
:101EC0008A1583120313290883160313D70083127C
:101ED0000313280883160313D6005708A5005608D5
:101EE000A40080300A168A1173270A128A154E3010
:101EF0000A168A11B4270A128A15831603133C089E
:101F0000303E0A168A117F270A128A158316031398
:101F10003B08303E0A168A117F270A128A1583165B
:101F200003133A08303E0A168A117F270A128A15CF
:101F3000033083160313D5008A30D4005530D30004
:101F4000D30BA02FD40BA02FD50BA02FC0300A1677
:101F50008A1173270A128A1558300A168A11B42773
:101F60000A128A15831603132808303E0A168A11AE
:101F70007F270A128A15831603132608303E0A1695
:101F80008A117F270A128A15831603132408303E0C
:101F90000A168A117F270A128A1506308316031340
:101FA000D5001330D400AD30D300D30BD52FD40BD4
:101FB000D52FD50BD52FFF2F83160313BD0101306D
:101FC0000A168A1173270A128A1580300A168A1196
:101FD00073270A128A1542300A168A11B4270A1288
:101FE0008A15033083160313D5008A30D400553088
:101FF000D300D30BF92FD40BF92FD50BF92F0800F1
:1020000010308A000408840A8207003420344F34D8
:1020100062346A346534633474342034443465344F
:102020007434653463347434653464342034003477
:1020300055346C3474347234613473346F346E34A8
:10204000693463342034733465346E3473346F34DC
:102050007234003477346934743468342034503442
:1020600049344334313436344634383437343734F1
:1020700041340034533445344134523443344834C9
:1020800049344E3447342E342E342E340034203428
:102090004E346F3420344F3462346A3465346334E0
:1020A00074342034003464346934733474346134E7
:1020B0006E34633465343A34003441344E3447343A
:0A20C0004C3445343A342034003427
:102EE60083120313A0002008880007100A128A1113
:102EF600ED270A168A11080083120313A000200882
:102F0600880007140A128A11ED270A168A1108008A
:102F160083160313071204308100FC308312031357
:102F260081008B168B170B17080083120313880179
:102F360038300A168A1173270A168A1101300A16C2
:102F46008A1173270A168A110C300A168A117327FA
:102F56000A168A1106300A168A1173270A168A116A
:102F6600080083120313A200CA2F220884000A163F
:102F76008A1100200A168A110A168A117F270A1654
:102F86008A11013083120313A1002108A207220827
:102F960084000A168A1100200A168A11003A031DB7
:102FA600D52FD62FB82F080083120313A600A2012F
:102FB600A3017408A000A1012008A4002108A5000F
:102FC600261CE62FE72FED2F2408A2070318A30AD5
:102FD6002508A30701300310A40DA50DFF3E031D10
:102FE600EE2F0310A60C2608031DFA2FFB2FE32F46
:0A2FF6002308F5002208F40008008B
:02400E007A3FF7
:00000001FF
